{
  "contractName": "EMPTtoken",
  "abi": [
    {
      "inputs": [],
      "payable": false,
      "stateMutability": "nonpayable",
      "type": "constructor"
    },
    {
      "anonymous": false,
      "inputs": [
        {
          "indexed": true,
          "internalType": "address",
          "name": "owner",
          "type": "address"
        },
        {
          "indexed": true,
          "internalType": "address",
          "name": "spender",
          "type": "address"
        },
        {
          "indexed": false,
          "internalType": "uint256",
          "name": "value",
          "type": "uint256"
        }
      ],
      "name": "Approval",
      "type": "event"
    },
    {
      "anonymous": false,
      "inputs": [
        {
          "indexed": true,
          "internalType": "address",
          "name": "from",
          "type": "address"
        },
        {
          "indexed": true,
          "internalType": "address",
          "name": "to",
          "type": "address"
        },
        {
          "indexed": false,
          "internalType": "uint256",
          "name": "value",
          "type": "uint256"
        }
      ],
      "name": "Transfer",
      "type": "event"
    },
    {
      "constant": true,
      "inputs": [
        {
          "internalType": "address",
          "name": "owner",
          "type": "address"
        },
        {
          "internalType": "address",
          "name": "spender",
          "type": "address"
        }
      ],
      "name": "allowance",
      "outputs": [
        {
          "internalType": "uint256",
          "name": "",
          "type": "uint256"
        }
      ],
      "payable": false,
      "stateMutability": "view",
      "type": "function"
    },
    {
      "constant": false,
      "inputs": [
        {
          "internalType": "address",
          "name": "spender",
          "type": "address"
        },
        {
          "internalType": "uint256",
          "name": "amount",
          "type": "uint256"
        }
      ],
      "name": "approve",
      "outputs": [
        {
          "internalType": "bool",
          "name": "",
          "type": "bool"
        }
      ],
      "payable": false,
      "stateMutability": "nonpayable",
      "type": "function"
    },
    {
      "constant": true,
      "inputs": [
        {
          "internalType": "address",
          "name": "account",
          "type": "address"
        }
      ],
      "name": "balanceOf",
      "outputs": [
        {
          "internalType": "uint256",
          "name": "",
          "type": "uint256"
        }
      ],
      "payable": false,
      "stateMutability": "view",
      "type": "function"
    },
    {
      "constant": true,
      "inputs": [],
      "name": "decimals",
      "outputs": [
        {
          "internalType": "uint8",
          "name": "",
          "type": "uint8"
        }
      ],
      "payable": false,
      "stateMutability": "view",
      "type": "function"
    },
    {
      "constant": false,
      "inputs": [
        {
          "internalType": "address",
          "name": "spender",
          "type": "address"
        },
        {
          "internalType": "uint256",
          "name": "subtractedValue",
          "type": "uint256"
        }
      ],
      "name": "decreaseAllowance",
      "outputs": [
        {
          "internalType": "bool",
          "name": "",
          "type": "bool"
        }
      ],
      "payable": false,
      "stateMutability": "nonpayable",
      "type": "function"
    },
    {
      "constant": false,
      "inputs": [
        {
          "internalType": "address",
          "name": "spender",
          "type": "address"
        },
        {
          "internalType": "uint256",
          "name": "addedValue",
          "type": "uint256"
        }
      ],
      "name": "increaseAllowance",
      "outputs": [
        {
          "internalType": "bool",
          "name": "",
          "type": "bool"
        }
      ],
      "payable": false,
      "stateMutability": "nonpayable",
      "type": "function"
    },
    {
      "constant": true,
      "inputs": [
        {
          "internalType": "address",
          "name": "",
          "type": "address"
        },
        {
          "internalType": "uint256",
          "name": "",
          "type": "uint256"
        }
      ],
      "name": "lockReason",
      "outputs": [
        {
          "internalType": "bytes32",
          "name": "",
          "type": "bytes32"
        }
      ],
      "payable": false,
      "stateMutability": "view",
      "type": "function"
    },
    {
      "constant": true,
      "inputs": [
        {
          "internalType": "address",
          "name": "",
          "type": "address"
        },
        {
          "internalType": "bytes32",
          "name": "",
          "type": "bytes32"
        }
      ],
      "name": "locked",
      "outputs": [
        {
          "internalType": "uint256",
          "name": "amount",
          "type": "uint256"
        },
        {
          "internalType": "uint256",
          "name": "validity",
          "type": "uint256"
        }
      ],
      "payable": false,
      "stateMutability": "view",
      "type": "function"
    },
    {
      "constant": true,
      "inputs": [],
      "name": "name",
      "outputs": [
        {
          "internalType": "string",
          "name": "",
          "type": "string"
        }
      ],
      "payable": false,
      "stateMutability": "view",
      "type": "function"
    },
    {
      "constant": true,
      "inputs": [],
      "name": "symbol",
      "outputs": [
        {
          "internalType": "string",
          "name": "",
          "type": "string"
        }
      ],
      "payable": false,
      "stateMutability": "view",
      "type": "function"
    },
    {
      "constant": true,
      "inputs": [],
      "name": "totalSupply",
      "outputs": [
        {
          "internalType": "uint256",
          "name": "",
          "type": "uint256"
        }
      ],
      "payable": false,
      "stateMutability": "view",
      "type": "function"
    },
    {
      "constant": true,
      "inputs": [],
      "name": "totalSupplyofToken",
      "outputs": [
        {
          "internalType": "uint256",
          "name": "",
          "type": "uint256"
        }
      ],
      "payable": false,
      "stateMutability": "view",
      "type": "function"
    },
    {
      "constant": false,
      "inputs": [
        {
          "internalType": "address",
          "name": "sender",
          "type": "address"
        },
        {
          "internalType": "address",
          "name": "recipient",
          "type": "address"
        },
        {
          "internalType": "uint256",
          "name": "amount",
          "type": "uint256"
        }
      ],
      "name": "transferFrom",
      "outputs": [
        {
          "internalType": "bool",
          "name": "",
          "type": "bool"
        }
      ],
      "payable": false,
      "stateMutability": "nonpayable",
      "type": "function"
    },
    {
      "constant": false,
      "inputs": [
        {
          "internalType": "uint256",
          "name": "_amount",
          "type": "uint256"
        }
      ],
      "name": "mint",
      "outputs": [],
      "payable": false,
      "stateMutability": "nonpayable",
      "type": "function"
    },
    {
      "constant": false,
      "inputs": [
        {
          "internalType": "uint256",
          "name": "_amount",
          "type": "uint256"
        }
      ],
      "name": "burn",
      "outputs": [],
      "payable": false,
      "stateMutability": "nonpayable",
      "type": "function"
    },
    {
      "constant": false,
      "inputs": [
        {
          "internalType": "address",
          "name": "_recipient",
          "type": "address"
        },
        {
          "internalType": "uint256",
          "name": "_amount",
          "type": "uint256"
        },
        {
          "internalType": "bytes32",
          "name": "_reason",
          "type": "bytes32"
        },
        {
          "internalType": "uint256",
          "name": "_time",
          "type": "uint256"
        }
      ],
      "name": "transferLock",
      "outputs": [
        {
          "internalType": "bool",
          "name": "",
          "type": "bool"
        }
      ],
      "payable": false,
      "stateMutability": "nonpayable",
      "type": "function"
    },
    {
      "constant": false,
      "inputs": [
        {
          "internalType": "address",
          "name": "_recipient",
          "type": "address"
        },
        {
          "internalType": "uint256",
          "name": "_amount",
          "type": "uint256"
        }
      ],
      "name": "transfer",
      "outputs": [
        {
          "internalType": "bool",
          "name": "",
          "type": "bool"
        }
      ],
      "payable": false,
      "stateMutability": "nonpayable",
      "type": "function"
    },
    {
      "constant": false,
      "inputs": [
        {
          "internalType": "address",
          "name": "_user",
          "type": "address"
        },
        {
          "internalType": "bytes32",
          "name": "_reason",
          "type": "bytes32"
        },
        {
          "internalType": "uint256",
          "name": "_amount",
          "type": "uint256"
        },
        {
          "internalType": "uint256",
          "name": "_time",
          "type": "uint256"
        }
      ],
      "name": "lock",
      "outputs": [
        {
          "internalType": "bool",
          "name": "",
          "type": "bool"
        }
      ],
      "payable": false,
      "stateMutability": "nonpayable",
      "type": "function"
    },
    {
      "constant": true,
      "inputs": [
        {
          "internalType": "address",
          "name": "_user",
          "type": "address"
        },
        {
          "internalType": "bytes32",
          "name": "_reason",
          "type": "bytes32"
        },
        {
          "internalType": "uint256",
          "name": "_time",
          "type": "uint256"
        }
      ],
      "name": "tokensLocked",
      "outputs": [
        {
          "internalType": "uint256",
          "name": "amount",
          "type": "uint256"
        }
      ],
      "payable": false,
      "stateMutability": "view",
      "type": "function"
    },
    {
      "constant": true,
      "inputs": [
        {
          "internalType": "address",
          "name": "_user",
          "type": "address"
        }
      ],
      "name": "transferableBalanceOf",
      "outputs": [
        {
          "internalType": "uint256",
          "name": "",
          "type": "uint256"
        }
      ],
      "payable": false,
      "stateMutability": "view",
      "type": "function"
    }
  ],
  "bytecode": "0x60806040523480156200001157600080fd5b506040518060400160405280600981526020017f454d5054746f6b656e00000000000000000000000000000000000000000000008152506040518060400160405280600481526020017f656d707400000000000000000000000000000000000000000000000000000000815250601262000090620001bd60201b60201c565b80600360006101000a81548173ffffffffffffffffffffffffffffffffffffffff021916908373ffffffffffffffffffffffffffffffffffffffff160217905550508260049080519060200190620000ea9291906200042f565b508160059080519060200190620001039291906200042f565b5080600660006101000a81548160ff021916908360ff16021790555050505062000132620001bd60201b60201c565b600860006101000a81548173ffffffffffffffffffffffffffffffffffffffff021916908373ffffffffffffffffffffffffffffffffffffffff16021790555062000182620001c560201b60201c565b60ff16600a0a63aba9500002600781905550620001b7620001a8620001bd60201b60201c565b600754620001dc60201b60201c565b620004de565b600033905090565b6000600660009054906101000a900460ff16905090565b600073ffffffffffffffffffffffffffffffffffffffff168273ffffffffffffffffffffffffffffffffffffffff16141562000280576040517f08c379a000000000000000000000000000000000000000000000000000000000815260040180806020018281038252601f8152602001807f45524332303a206d696e7420746f20746865207a65726f20616464726573730081525060200191505060405180910390fd5b6200029c81600254620003a660201b620013671790919060201c565b600281905550620002fa816000808573ffffffffffffffffffffffffffffffffffffffff1673ffffffffffffffffffffffffffffffffffffffff16815260200190815260200160002054620003a660201b620013671790919060201c565b6000808473ffffffffffffffffffffffffffffffffffffffff1673ffffffffffffffffffffffffffffffffffffffff168152602001908152602001600020819055508173ffffffffffffffffffffffffffffffffffffffff16600073ffffffffffffffffffffffffffffffffffffffff167fddf252ad1be2c89b69c2b068fc378daa952ba7f163c4a11628f55a4df523b3ef836040518082815260200191505060405180910390a35050565b60008082840190508381101562000425576040517f08c379a000000000000000000000000000000000000000000000000000000000815260040180806020018281038252601b8152602001807f536166654d6174683a206164646974696f6e206f766572666c6f77000000000081525060200191505060405180910390fd5b8091505092915050565b828054600181600116156101000203166002900490600052602060002090601f016020900481019282601f106200047257805160ff1916838001178555620004a3565b82800160010185558215620004a3579182015b82811115620004a257825182559160200191906001019062000485565b5b509050620004b29190620004b6565b5090565b620004db91905b80821115620004d7576000816000905550600101620004bd565b5090565b90565b611eb080620004ee6000396000f3fe608060405234801561001057600080fd5b506004361061012c5760003560e01c806342966c68116100ad578063a457c2d711610071578063a457c2d71461065f578063a9059cbb146106c5578063c7d9f4d11461072b578063d71be8db14610783578063dd62ed3e146107ec5761012c565b806342966c68146104c657806370a08231146104f457806371d66f001461054c57806395d89b41146105ae578063a0712d68146106315761012c565b806323b872dd116100f457806323b872dd146102d057806325c8a8bc14610356578063313ce567146103d057806339509351146103f45780633cd8e5a51461045a5761012c565b806306fdde0314610131578063087fad41146101b4578063095ea7b31461022e57806318160ddd14610294578063231224ef146102b2575b600080fd5b610139610864565b6040518080602001828103825283818151815260200191508051906020019080838360005b8381101561017957808201518184015260208101905061015e565b50505050905090810190601f1680156101a65780820380516001836020036101000a031916815260200191505b509250505060405180910390f35b610214600480360360808110156101ca57600080fd5b81019080803573ffffffffffffffffffffffffffffffffffffffff169060200190929190803590602001909291908035906020019092919080359060200190929190505050610906565b604051808215151515815260200191505060405180910390f35b61027a6004803603604081101561024457600080fd5b81019080803573ffffffffffffffffffffffffffffffffffffffff16906020019092919080359060200190929190505050610b5e565b604051808215151515815260200191505060405180910390f35b61029c610b7c565b6040518082815260200191505060405180910390f35b6102ba610b86565b6040518082815260200191505060405180910390f35b61033c600480360360608110156102e657600080fd5b81019080803573ffffffffffffffffffffffffffffffffffffffff169060200190929190803573ffffffffffffffffffffffffffffffffffffffff16906020019092919080359060200190929190505050610b8c565b604051808215151515815260200191505060405180910390f35b6103b66004803603608081101561036c57600080fd5b81019080803573ffffffffffffffffffffffffffffffffffffffff169060200190929190803590602001909291908035906020019092919080359060200190929190505050610c65565b604051808215151515815260200191505060405180910390f35b6103d8610cec565b604051808260ff1660ff16815260200191505060405180910390f35b6104406004803603604081101561040a57600080fd5b81019080803573ffffffffffffffffffffffffffffffffffffffff16906020019092919080359060200190929190505050610d03565b604051808215151515815260200191505060405180910390f35b6104b06004803603606081101561047057600080fd5b81019080803573ffffffffffffffffffffffffffffffffffffffff1690602001909291908035906020019092919080359060200190929190505050610db6565b6040518082815260200191505060405180910390f35b6104f2600480360360208110156104dc57600080fd5b8101908080359060200190929190505050610e71565b005b6105366004803603602081101561050a57600080fd5b81019080803573ffffffffffffffffffffffffffffffffffffffff169060200190929190505050610efb565b6040518082815260200191505060405180910390f35b6105986004803603604081101561056257600080fd5b81019080803573ffffffffffffffffffffffffffffffffffffffff16906020019092919080359060200190929190505050610f43565b6040518082815260200191505060405180910390f35b6105b6610f71565b6040518080602001828103825283818151815260200191508051906020019080838360005b838110156105f65780820151818401526020810190506105db565b50505050905090810190601f1680156106235780820380516001836020036101000a031916815260200191505b509250505060405180910390f35b61065d6004803603602081101561064757600080fd5b8101908080359060200190929190505050611013565b005b6106ab6004803603604081101561067557600080fd5b81019080803573ffffffffffffffffffffffffffffffffffffffff1690602001909291908035906020019092919050505061109d565b604051808215151515815260200191505060405180910390f35b610711600480360360408110156106db57600080fd5b81019080803573ffffffffffffffffffffffffffffffffffffffff1690602001909291908035906020019092919050505061116a565b604051808215151515815260200191505060405180910390f35b61076d6004803603602081101561074157600080fd5b81019080803573ffffffffffffffffffffffffffffffffffffffff1690602001909291905050506111b5565b6040518082815260200191505060405180910390f35b6107cf6004803603604081101561079957600080fd5b81019080803573ffffffffffffffffffffffffffffffffffffffff169060200190929190803590602001909291905050506112a7565b604051808381526020018281526020019250505060405180910390f35b61084e6004803603604081101561080257600080fd5b81019080803573ffffffffffffffffffffffffffffffffffffffff169060200190929190803573ffffffffffffffffffffffffffffffffffffffff1690602001909291905050506112d8565b6040518082815260200191505060405180910390f35b606060048054600181600116156101000203166002900480601f0160208091040260200160405190810160405280929190818152602001828054600181600116156101000203166002900480156108fc5780601f106108d1576101008083540402835291602001916108fc565b820191906000526020600020905b8154815290600101906020018083116108df57829003601f168201915b5050505050905090565b6000600860009054906101000a900473ffffffffffffffffffffffffffffffffffffffff1673ffffffffffffffffffffffffffffffffffffffff1661094961135f565b73ffffffffffffffffffffffffffffffffffffffff161461096957600080fd5b600061097e834261136790919063ffffffff16565b9050610989866111b5565b84111561099557600080fd5b6000600a60008873ffffffffffffffffffffffffffffffffffffffff1673ffffffffffffffffffffffffffffffffffffffff1681526020019081526020016000206000878152602001908152602001600020600001541415610a5b57600960008773ffffffffffffffffffffffffffffffffffffffff1673ffffffffffffffffffffffffffffffffffffffff1681526020019081526020016000208590806001815401808255809150509060018203906000526020600020016000909192909190915055505b6000610a68878742610db6565b1415610aef57604051806040016040528085815260200182815250600a60008873ffffffffffffffffffffffffffffffffffffffff1673ffffffffffffffffffffffffffffffffffffffff16815260200190815260200160002060008781526020019081526020016000206000820151816000015560208201518160010155905050610b51565b83600a60008873ffffffffffffffffffffffffffffffffffffffff1673ffffffffffffffffffffffffffffffffffffffff1681526020019081526020016000206000878152602001908152602001600020600001600082825401925050819055505b6001915050949350505050565b6000610b72610b6b61135f565b84846113ef565b6001905092915050565b6000600254905090565b60075481565b6000610b998484846115e6565b610c5a84610ba561135f565b610c5585604051806060016040528060288152602001611dc560289139600160008b73ffffffffffffffffffffffffffffffffffffffff1673ffffffffffffffffffffffffffffffffffffffff1681526020019081526020016000206000610c0b61135f565b73ffffffffffffffffffffffffffffffffffffffff1673ffffffffffffffffffffffffffffffffffffffff1681526020019081526020016000205461189c9092919063ffffffff16565b6113ef565b600190509392505050565b6000600860009054906101000a900473ffffffffffffffffffffffffffffffffffffffff1673ffffffffffffffffffffffffffffffffffffffff16610ca861135f565b73ffffffffffffffffffffffffffffffffffffffff1614610cc857600080fd5b610cd2858561195c565b50610cdf85848685610906565b5060019050949350505050565b6000600660009054906101000a900460ff16905090565b6000610dac610d1061135f565b84610da78560016000610d2161135f565b73ffffffffffffffffffffffffffffffffffffffff1673ffffffffffffffffffffffffffffffffffffffff16815260200190815260200160002060008973ffffffffffffffffffffffffffffffffffffffff1673ffffffffffffffffffffffffffffffffffffffff1681526020019081526020016000205461136790919063ffffffff16565b6113ef565b6001905092915050565b600081600a60008673ffffffffffffffffffffffffffffffffffffffff1673ffffffffffffffffffffffffffffffffffffffff1681526020019081526020016000206000858152602001908152602001600020600101541115610e6a57600a60008573ffffffffffffffffffffffffffffffffffffffff1673ffffffffffffffffffffffffffffffffffffffff16815260200190815260200160002060008481526020019081526020016000206000015490505b9392505050565b600860009054906101000a900473ffffffffffffffffffffffffffffffffffffffff1673ffffffffffffffffffffffffffffffffffffffff16610eb261135f565b73ffffffffffffffffffffffffffffffffffffffff1614610ed257600080fd5b6000610edc610cec565b60ff16600a0a82029050610ef7610ef161135f565b8261197a565b5050565b60008060008373ffffffffffffffffffffffffffffffffffffffff1673ffffffffffffffffffffffffffffffffffffffff168152602001908152602001600020549050919050565b60096020528160005260406000208181548110610f5c57fe5b90600052602060002001600091509150505481565b606060058054600181600116156101000203166002900480601f0160208091040260200160405190810160405280929190818152602001828054600181600116156101000203166002900480156110095780601f10610fde57610100808354040283529160200191611009565b820191906000526020600020905b815481529060010190602001808311610fec57829003601f168201915b5050505050905090565b600860009054906101000a900473ffffffffffffffffffffffffffffffffffffffff1673ffffffffffffffffffffffffffffffffffffffff1661105461135f565b73ffffffffffffffffffffffffffffffffffffffff161461107457600080fd5b600061107e610cec565b60ff16600a0a8202905061109961109361135f565b82611b32565b5050565b60006111606110aa61135f565b8461115b85604051806060016040528060258152602001611e5760259139600160006110d461135f565b73ffffffffffffffffffffffffffffffffffffffff1673ffffffffffffffffffffffffffffffffffffffff16815260200190815260200160002060008a73ffffffffffffffffffffffffffffffffffffffff1673ffffffffffffffffffffffffffffffffffffffff1681526020019081526020016000205461189c9092919063ffffffff16565b6113ef565b6001905092915050565b60008061117d61117861135f565b6111b5565b905060006111948483611ced90919063ffffffff16565b101561119f57600080fd5b6111a9848461195c565b50600191505092915050565b60008060008060008090505b600960008773ffffffffffffffffffffffffffffffffffffffff1673ffffffffffffffffffffffffffffffffffffffff1681526020019081526020016000208054905081101561127b5761126a86600960008973ffffffffffffffffffffffffffffffffffffffff1673ffffffffffffffffffffffffffffffffffffffff168152602001908152602001600020838154811061125957fe5b906000526020600020015442610db6565b8301925080806001019150506111c1565b5061128585610efb565b925061129a8284611ced90919063ffffffff16565b9050809350505050919050565b600a602052816000526040600020602052806000526040600020600091509150508060000154908060010154905082565b6000600160008473ffffffffffffffffffffffffffffffffffffffff1673ffffffffffffffffffffffffffffffffffffffff16815260200190815260200160002060008373ffffffffffffffffffffffffffffffffffffffff1673ffffffffffffffffffffffffffffffffffffffff16815260200190815260200160002054905092915050565b600033905090565b6000808284019050838110156113e5576040517f08c379a000000000000000000000000000000000000000000000000000000000815260040180806020018281038252601b8152602001807f536166654d6174683a206164646974696f6e206f766572666c6f77000000000081525060200191505060405180910390fd5b8091505092915050565b600073ffffffffffffffffffffffffffffffffffffffff168373ffffffffffffffffffffffffffffffffffffffff161415611475576040517f08c379a0000000000000000000000000000000000000000000000000000000008152600401808060200182810382526024815260200180611e336024913960400191505060405180910390fd5b600073ffffffffffffffffffffffffffffffffffffffff168273ffffffffffffffffffffffffffffffffffffffff1614156114fb576040517f08c379a0000000000000000000000000000000000000000000000000000000008152600401808060200182810382526022815260200180611d7d6022913960400191505060405180910390fd5b80600160008573ffffffffffffffffffffffffffffffffffffffff1673ffffffffffffffffffffffffffffffffffffffff16815260200190815260200160002060008473ffffffffffffffffffffffffffffffffffffffff1673ffffffffffffffffffffffffffffffffffffffff168152602001908152602001600020819055508173ffffffffffffffffffffffffffffffffffffffff168373ffffffffffffffffffffffffffffffffffffffff167f8c5be1e5ebec7d5bd14f71427d1e84f3dd0314c0f7b2291e5b200ac8c7c3b925836040518082815260200191505060405180910390a3505050565b600073ffffffffffffffffffffffffffffffffffffffff168373ffffffffffffffffffffffffffffffffffffffff16141561166c576040517f08c379a0000000000000000000000000000000000000000000000000000000008152600401808060200182810382526025815260200180611e0e6025913960400191505060405180910390fd5b600073ffffffffffffffffffffffffffffffffffffffff168273ffffffffffffffffffffffffffffffffffffffff1614156116f2576040517f08c379a0000000000000000000000000000000000000000000000000000000008152600401808060200182810382526023815260200180611d386023913960400191505060405180910390fd5b61175d81604051806060016040528060268152602001611d9f602691396000808773ffffffffffffffffffffffffffffffffffffffff1673ffffffffffffffffffffffffffffffffffffffff1681526020019081526020016000205461189c9092919063ffffffff16565b6000808573ffffffffffffffffffffffffffffffffffffffff1673ffffffffffffffffffffffffffffffffffffffff168152602001908152602001600020819055506117f0816000808573ffffffffffffffffffffffffffffffffffffffff1673ffffffffffffffffffffffffffffffffffffffff1681526020019081526020016000205461136790919063ffffffff16565b6000808473ffffffffffffffffffffffffffffffffffffffff1673ffffffffffffffffffffffffffffffffffffffff168152602001908152602001600020819055508173ffffffffffffffffffffffffffffffffffffffff168373ffffffffffffffffffffffffffffffffffffffff167fddf252ad1be2c89b69c2b068fc378daa952ba7f163c4a11628f55a4df523b3ef836040518082815260200191505060405180910390a3505050565b6000838311158290611949576040517f08c379a00000000000000000000000000000000000000000000000000000000081526004018080602001828103825283818151815260200191508051906020019080838360005b8381101561190e5780820151818401526020810190506118f3565b50505050905090810190601f16801561193b5780820380516001836020036101000a031916815260200191505b509250505060405180910390fd5b5060008385039050809150509392505050565b600061197061196961135f565b84846115e6565b6001905092915050565b600073ffffffffffffffffffffffffffffffffffffffff168273ffffffffffffffffffffffffffffffffffffffff161415611a00576040517f08c379a0000000000000000000000000000000000000000000000000000000008152600401808060200182810382526021815260200180611ded6021913960400191505060405180910390fd5b611a6b81604051806060016040528060228152602001611d5b602291396000808673ffffffffffffffffffffffffffffffffffffffff1673ffffffffffffffffffffffffffffffffffffffff1681526020019081526020016000205461189c9092919063ffffffff16565b6000808473ffffffffffffffffffffffffffffffffffffffff1673ffffffffffffffffffffffffffffffffffffffff16815260200190815260200160002081905550611ac281600254611ced90919063ffffffff16565b600281905550600073ffffffffffffffffffffffffffffffffffffffff168273ffffffffffffffffffffffffffffffffffffffff167fddf252ad1be2c89b69c2b068fc378daa952ba7f163c4a11628f55a4df523b3ef836040518082815260200191505060405180910390a35050565b600073ffffffffffffffffffffffffffffffffffffffff168273ffffffffffffffffffffffffffffffffffffffff161415611bd5576040517f08c379a000000000000000000000000000000000000000000000000000000000815260040180806020018281038252601f8152602001807f45524332303a206d696e7420746f20746865207a65726f20616464726573730081525060200191505060405180910390fd5b611bea8160025461136790919063ffffffff16565b600281905550611c41816000808573ffffffffffffffffffffffffffffffffffffffff1673ffffffffffffffffffffffffffffffffffffffff1681526020019081526020016000205461136790919063ffffffff16565b6000808473ffffffffffffffffffffffffffffffffffffffff1673ffffffffffffffffffffffffffffffffffffffff168152602001908152602001600020819055508173ffffffffffffffffffffffffffffffffffffffff16600073ffffffffffffffffffffffffffffffffffffffff167fddf252ad1be2c89b69c2b068fc378daa952ba7f163c4a11628f55a4df523b3ef836040518082815260200191505060405180910390a35050565b6000611d2f83836040518060400160405280601e81526020017f536166654d6174683a207375627472616374696f6e206f766572666c6f77000081525061189c565b90509291505056fe45524332303a207472616e7366657220746f20746865207a65726f206164647265737345524332303a206275726e20616d6f756e7420657863656564732062616c616e636545524332303a20617070726f766520746f20746865207a65726f206164647265737345524332303a207472616e7366657220616d6f756e7420657863656564732062616c616e636545524332303a207472616e7366657220616d6f756e74206578636565647320616c6c6f77616e636545524332303a206275726e2066726f6d20746865207a65726f206164647265737345524332303a207472616e736665722066726f6d20746865207a65726f206164647265737345524332303a20617070726f76652066726f6d20746865207a65726f206164647265737345524332303a2064656372656173656420616c6c6f77616e63652062656c6f77207a65726fa265627a7a72315820ed2cdd477f1705f610cf821e2d829503decc6133905ca00416e074359837125b64736f6c63430005100032",
  "source": "pragma solidity >=0.4.22 <0.8.0;\n\nimport \"./Context.sol\";\nimport \"./ERC20.sol\";\nimport \"./ERC20Detailed.sol\";\n\n/**\n * @title SimpleToken\n * @dev Very simple ERC20 Token example, where all tokens are pre-assigned to the creator.\n * Note they can later distribute these tokens as they wish using `transfer` and other\n * `ERC20` functions.\n */\ncontract EMPTtoken is Context, ERC20, ERC20Detailed {\n    \n    uint256 public totalSupplyofToken;\n    address private owner;\n    \n    mapping(address => bytes32[]) public lockReason;\n\tmapping(address => mapping(bytes32 => lockToken)) public locked;\n    \n\tstruct lockToken {\n        uint256 amount;\n        uint256 validity;\n    }\n    \n    modifier onlyOwner () {\n        require(_msgSender() == owner);\n        _;\n    }\n    \n    /**\n     * @dev Constructor that gives _msgSender() all of existing tokens.\n     */\n    constructor () public ERC20Detailed(\"EMPTtoken\", \"empt\", 18) ERC20(_msgSender()) {\n        \n        owner = _msgSender();\n        totalSupplyofToken = 2880000000 * (10 ** uint256(decimals()));\n        _mint(_msgSender(), totalSupplyofToken);\n    }\n    \n    function mint(uint256 _amount) public onlyOwner {\n        uint256 mint_amount = _amount * (10 ** uint256(decimals()));\n        _mint(_msgSender(), mint_amount);\n    } \n    \n    function burn(uint256 _amount) public onlyOwner {\n        uint256 burn_amount = _amount * (10 ** uint256(decimals()));\n        _burn(_msgSender(), burn_amount);\n    }\n    \n    function transferLock(address _recipient, uint256 _amount, bytes32 _reason, uint256 _time) onlyOwner public returns (bool){\n        _transferToken(_recipient, _amount);\n        \n        lock(_recipient, _reason, _amount, _time);    \n        return true;\n    } \n    \n    function transfer(address _recipient, uint256 _amount) public returns (bool) {\n        \n        uint256 transferableToken = transferableBalanceOf(_msgSender());\n        \n        require(transferableToken.sub(_amount) >= 0);\n        \n        _transferToken(_recipient, _amount);\n        return true;\n    }\n    \n    /**\n     * @dev Locks a specified amount of tokens against an address,\n     *      for a specified reason and time\n     */\n    \n    function lock(address _user, bytes32 _reason, uint256 _amount, uint256 _time) onlyOwner public returns (bool){\n        uint256 validUntil = block.timestamp.add(_time);\n        // If tokens are already locked, the functions extendLock or\n        // increaseLockAmount should be used to make any changes\n        //require(tokensLocked(_user, _reason, block.timestamp) == 0);\n        require(_amount <= transferableBalanceOf(_user));\n        \n        if (locked[_user][_reason].amount == 0)\n            lockReason[_user].push(_reason);\n        \n        if(tokensLocked(_user, _reason, block.timestamp) == 0){\n            locked[_user][_reason] = lockToken(_amount, validUntil);    \n        }else{\n            locked[_user][_reason].amount += _amount;   \n        }\n        \n        return true;\n    }\n    \n    /**\n     * @dev Returns tokens locked for a specified address for a\n     *      specified reason at a specified time\n     *\n     * @param _user The address whose tokens are locked\n     * @param _reason The reason to query the lock tokens for\n     * @param _time The timestamp to query the lock tokens for\n     */\n    function tokensLocked(address _user, bytes32 _reason, uint256 _time) public view returns (uint256 amount){\n        if (locked[_user][_reason].validity > _time)\n            amount = locked[_user][_reason].amount;\n    }\n    \n    function transferableBalanceOf(address _user) public view returns (uint256){\n\t\tuint256 totalBalance;\n\t\tuint256 lockedAmount;\n\t\tuint256 amount;\n\t\t\n\t\tfor (uint256 i=0; i < lockReason[_user].length; i++) {\n\t\t\tlockedAmount += tokensLocked(_user,lockReason[_user][i], block.timestamp);\n\t\t}\n\t\t\n\t\ttotalBalance = balanceOf(_user); \n\t\tamount = totalBalance.sub(lockedAmount);\n\t\treturn amount;\n\t}\n\t\n}",
  "sourcePath": "/Users/brand13/Dev/EMPT-project/contracts/EMPTtoken.sol",
  "compiler": {
    "name": "solc",
    "version": "0.5.16+commit.9c3226ce.Emscripten.clang"
  },
  "schemaVersion": "3.2.3",
  "updatedAt": "2020-08-26T02:56:21.536Z",
  "networkType": "ethereum",
  "devdoc": {
    "details": "Very simple ERC20 Token example, where all tokens are pre-assigned to the creator. Note they can later distribute these tokens as they wish using `transfer` and other `ERC20` functions.",
    "methods": {
      "allowance(address,address)": {
        "details": "See {IERC20-allowance}."
      },
      "approve(address,uint256)": {
        "details": "See {IERC20-approve}.     * Requirements:     * - `spender` cannot be the zero address."
      },
      "balanceOf(address)": {
        "details": "See {IERC20-balanceOf}."
      },
      "constructor": {
        "details": "Constructor that gives _msgSender() all of existing tokens."
      },
      "decimals()": {
        "details": "Returns the number of decimals used to get its user representation. For example, if `decimals` equals `2`, a balance of `505` tokens should be displayed to a user as `5,05` (`505 / 10 ** 2`).     * Tokens usually opt for a value of 18, imitating the relationship between Ether and Wei.     * NOTE: This information is only used for _display_ purposes: it in no way affects any of the arithmetic of the contract, including {IERC20-balanceOf} and {IERC20-transfer}."
      },
      "decreaseAllowance(address,uint256)": {
        "details": "Atomically decreases the allowance granted to `spender` by the caller.     * This is an alternative to {approve} that can be used as a mitigation for problems described in {IERC20-approve}.     * Emits an {Approval} event indicating the updated allowance.     * Requirements:     * - `spender` cannot be the zero address. - `spender` must have allowance for the caller of at least `subtractedValue`."
      },
      "increaseAllowance(address,uint256)": {
        "details": "Atomically increases the allowance granted to `spender` by the caller.     * This is an alternative to {approve} that can be used as a mitigation for problems described in {IERC20-approve}.     * Emits an {Approval} event indicating the updated allowance.     * Requirements:     * - `spender` cannot be the zero address."
      },
      "lock(address,bytes32,uint256,uint256)": {
        "details": "Locks a specified amount of tokens against an address,     for a specified reason and time"
      },
      "name()": {
        "details": "Returns the name of the token."
      },
      "symbol()": {
        "details": "Returns the symbol of the token, usually a shorter version of the name."
      },
      "tokensLocked(address,bytes32,uint256)": {
        "details": "Returns tokens locked for a specified address for a     specified reason at a specified time",
        "params": {
          "_reason": "The reason to query the lock tokens for",
          "_time": "The timestamp to query the lock tokens for",
          "_user": "The address whose tokens are locked"
        }
      },
      "totalSupply()": {
        "details": "See {IERC20-totalSupply}."
      },
      "transferFrom(address,address,uint256)": {
        "details": "See {IERC20-transferFrom}.     * Emits an {Approval} event indicating the updated allowance. This is not required by the EIP. See the note at the beginning of {ERC20};     * Requirements: - `sender` and `recipient` cannot be the zero address. - `sender` must have a balance of at least `amount`. - the caller must have allowance for `sender`'s tokens of at least `amount`."
      }
    },
    "title": "SimpleToken"
  },
  "userdoc": {
    "methods": {}
  }
}